:0300230002804B0D
:02800000803EC0
:10804000783011737E80D2AC0080FE7598705389B1
:108050000F43892053883F758CFD758AFD43884006
:108060003098FDE599F6EE0E118A900030E4E611A5
:10807000A70822C29011C87428118A11C8740C1163
:108080008A11C87406118A11C82211CDF5F054F076
:10809000F590D29000C290E5F0C454F0F590D290E3
:1080A00000C2907590F02211CDF5F054F04402F525
:1080B00090D29000C290E5F0C454F04402F590D202
:1080C0009000C2907590F0227F00DFFE22C0E07524
:1080D00090F4D290E590C290F5F0D290E590C290E5
:0880E000E5F020E7EAD0E02200
:00000001FF
